{
  "contractName": "WasteManagement",
  "abi": [
    {
      "constant": true,
      "inputs": [],
      "name": "location",
      "outputs": [
        {
          "name": "",
          "type": "string"
        }
      ],
      "payable": false,
      "stateMutability": "view",
      "type": "function"
    },
    {
      "constant": true,
      "inputs": [
        {
          "name": "",
          "type": "address"
        }
      ],
      "name": "trashCount",
      "outputs": [
        {
          "name": "trash_weight",
          "type": "uint256"
        },
        {
          "name": "trash_type",
          "type": "bytes32"
        },
        {
          "name": "sanitation_worker",
          "type": "address"
        }
      ],
      "payable": false,
      "stateMutability": "view",
      "type": "function"
    },
    {
      "inputs": [
        {
          "name": "_location",
          "type": "string"
        }
      ],
      "payable": false,
      "stateMutability": "nonpayable",
      "type": "constructor"
    },
    {
      "constant": false,
      "inputs": [
        {
          "name": "trash_weight",
          "type": "uint256"
        },
        {
          "name": "trash_type",
          "type": "bytes32"
        },
        {
          "name": "sanitation_worker",
          "type": "address"
        }
      ],
      "name": "createTrash",
      "outputs": [],
      "payable": false,
      "stateMutability": "nonpayable",
      "type": "function"
    },
    {
      "constant": false,
      "inputs": [
        {
          "name": "trash_weight",
          "type": "uint256"
        },
        {
          "name": "trash_type",
          "type": "bytes32"
        }
      ],
      "name": "payOutTrash",
      "outputs": [
        {
          "name": "",
          "type": "uint256"
        }
      ],
      "payable": true,
      "stateMutability": "payable",
      "type": "function"
    }
  ],
  "bytecode": "0x608060405234801561001057600080fd5b506040516107303803806107308339810180604052602081101561003357600080fd5b81019080805164010000000081111561004b57600080fd5b8281019050602081018481111561006157600080fd5b815185600182028301116401000000008211171561007e57600080fd5b5050929190505050806000908051906020019061009c9291906100b4565b5069d3c21bcecceda100000060028190555050610159565b828054600181600116156101000203166002900490600052602060002090601f016020900481019282601f106100f557805160ff1916838001178555610123565b82800160010185558215610123579182015b82811115610122578251825591602001919060010190610107565b5b5090506101309190610134565b5090565b61015691905b8082111561015257600081600090555060010161013a565b5090565b90565b6105c8806101686000396000f3fe608060405260043610610062576000357c0100000000000000000000000000000000000000000000000000000000900463ffffffff168063200b058d1461006757806338620211146100b3578063516f279e14610118578063e55c7393146101a8575b600080fd5b61009d6004803603604081101561007d57600080fd5b810190808035906020019092919080359060200190929190505050610247565b6040518082815260200191505060405180910390f35b3480156100bf57600080fd5b50610116600480360360608110156100d657600080fd5b810190808035906020019092919080359060200190929190803573ffffffffffffffffffffffffffffffffffffffff169060200190929190505050610311565b005b34801561012457600080fd5b5061012d6103e5565b6040518080602001828103825283818151815260200191508051906020019080838360005b8381101561016d578082015181840152602081019050610152565b50505050905090810190601f16801561019a5780820380516001836020036101000a031916815260200191505b509250505060405180910390f35b3480156101b457600080fd5b506101f7600480360360208110156101cb57600080fd5b81019080803573ffffffffffffffffffffffffffffffffffffffff169060200190929190505050610483565b604051808481526020018381526020018273ffffffffffffffffffffffffffffffffffffffff1673ffffffffffffffffffffffffffffffffffffffff168152602001935050505060405180910390f35b60008083610254846104cd565b029050806002600082825403925050819055508060025410151515610307576040517f08c379a00000000000000000000000000000000000000000000000000000000081526004018080602001828103825260238152602001807f436f6e747261637420646f6573206e6f74206861766520656e6f75676820667581526020017f6e6473000000000000000000000000000000000000000000000000000000000081525060400191505060405180910390fd5b8091505092915050565b6060604051908101604052808481526020018381526020018273ffffffffffffffffffffffffffffffffffffffff16815250600360008373ffffffffffffffffffffffffffffffffffffffff1673ffffffffffffffffffffffffffffffffffffffff168152602001908152602001600020600082015181600001556020820151816001015560408201518160020160006101000a81548173ffffffffffffffffffffffffffffffffffffffff021916908373ffffffffffffffffffffffffffffffffffffffff160217905550905050505050565b60008054600181600116156101000203166002900480601f01602080910402602001604051908101604052809291908181526020018280546001816001161561010002031660029004801561047b5780601f106104505761010080835404028352916020019161047b565b820191906000526020600020905b81548152906001019060200180831161045e57829003601f168201915b505050505081565b60036020528060005260406000206000915090508060000154908060010154908060020160009054906101000a900473ffffffffffffffffffffffffffffffffffffffff16905083565b60007f6d6574616c000000000000000000000000000000000000000000000000000000821415610501576101f49050610597565b7f68617a6172646f75730000000000000000000000000000000000000000000000821415610533576101909050610597565b7f68617a6172646f757300000000000000000000000000000000000000000000008214156105655761012c9050610597565b7f77657400000000000000000000000000000000000000000000000000000000008214156105965760c89050610597565b5b91905056fea165627a7a7230582096fc9a81029ac1ce488f9e8d26115fd8544a7e43e73df88fa5cb50f52ba250250029",
  "source": "pragma solidity ^0.5.0;\n\n\ncontract WasteManagement{\n\n  string public location;\n  uint totalSpent;\n  uint256 cash;\n\n   struct Trash{\n     uint trash_weight;\n     bytes32 trash_type;\n     address sanitation_worker;\n    }\n\n  mapping(address => Trash) public trashCount;\n\n  constructor(string memory _location)public{\n    location = _location;\n    cash = 1000000 ether;\n   }\n\n\n  function createTrash(uint trash_weight, bytes32 trash_type, address sanitation_worker)public{\n    trashCount[sanitation_worker] = Trash(trash_weight, trash_type, sanitation_worker);\n  }\n\n  function calculateType(bytes32 trash_type) private pure returns(uint){\n    if(trash_type == \"metal\"){\n      return 500 wei;\n    }\n    if(trash_type == \"hazardous\"){\n      return  400 wei;\n    }\n    if(trash_type == \"hazardous\"){\n      return  300 wei;\n    }\n    if(trash_type == \"wet\"){\n      return  200 wei;\n    }\n  }\n\n  function payOutTrash(uint trash_weight, bytes32 trash_type)public payable returns(uint){\n      uint256 payout = calculateType(trash_type) * trash_weight;\n      cash -= payout;\n      require (cash >= payout, 'Contract does not have enough funds');\n      return payout;\n  }\n}\n\n\n",
  "sourcePath": "/Users/lafountain/Desktop/wasteManagementonBChain/back_end/server/contracts/wastemanagement.sol",
  "compiler": {
    "name": "solc",
    "version": "0.5.0+commit.1d4f565a.Emscripten.clang"
  },
  "schemaVersion": "3.0.9",
  "updatedAt": "2019-09-22T05:16:22.412Z",
  "devdoc": {
    "methods": {}
  },
  "userdoc": {
    "methods": {}
  }
}